:0400000028EF00F0F5
:100008005482FACF35F0FBCF36F0D9CF37F0DACFBC
:1000180038F0F2BAF2A403D000EC01F00BD0F2AC45
:1000280009D09DA802D09EB805D09DBA9EAA02D03C
:1000380024EC01F038C0DAFF37C0D9FF36C0FBFF27
:1000480035C0FAFF54921100EDEF00F033EC01F0E7
:10005800F28EF28C000E446E000E456E000E466E57
:10006800000E476E4450195C3C6E45501A583D6E60
:1000780046501B583E6E47501C583F6E3F503E102E
:1000880006E1F40E3C5C010E3D58D8A00AD019C018
:1000980044F01AC045F01BC046F01CC047F069EC9C
:1000A80000F0ADEC01F0496E61EC01F00009D8A454
:1000B80007D049504818D8B403D04950A6EC01F0ED
:1000C8006AEC01F049C048F0CDD7000E396E899A24
:1000D800899600F000F0898600F000F08996000EFD
:1000E8003B6E000E3A6E80A802D0010E01D0000EC1
:1000F8003910396E00F000F0898A00F000F0899A12
:100108003BBE06D03B5006E1070E3A5CD8B002D0A1
:10011800D89039363A4A3B2A3BBEE5D73B5004E1F2
:10012800080E3A5CD8A0DFD739C027F01200080EB5
:10013800706E900E716E240E726E190E756E000E32
:10014800766E000E396E000E3A6E9CEC01F0000ED1
:10015800396E000E3A6E97EC01F0000E396E000E03
:100168003A6EA1EC01F0000E326E12009D9A9D9835
:10017800080EB86E900EAB6E240EAC6E190EAF6EF4
:10018800000EB06E000E2C6E000E316E000E306E3A
:10019800080E536E000E2F6E000E2E6E000E2D6E82
:1001A8009D8A1200000E896E000E8A6E000E8B6EFC
:1001B800D70E926EBF0E936EBF0E946E3C0E0F015B
:1001C8003A6F3F0E396F070E386F000E616EF18E71
:1001D800120000EE60F0200EEE6AE806FDE100EE87
:1001E80001F0320EEE6AE806FDE154905492000EDA
:1001F800F86E00012AEF00F0F29452C0D6FF4A5080
:100208004B10D8B4120001D812000500FA6E4A50FB
:10021800FD6E4B50FE6EF850FF6EFA501200000E45
:10022800D76E830ED66E830E526EF294F28A160E35
:10023800396E030E3A6E92EC01F0D00ED56E1200B4
:10024800ABA202D0AB98AB88AECF34F073EC01F020
:100258000009D8A41200345056EC01F01200ABEC9F
:1002680001F0D6EC00F084EC01F013EC01F0BAECEC
:1002780000F09BEC00F012002850600FD96EDA6A8B
:10028800DF50396E282A0F0E281639501200396EA1
:100298002A50600FD96EDA6A39C0DFFF2A2A0F0E9A
:1002A8002A161200336E2B50700FD96EDA6A33C0DB
:1002B800DFFF2B2A0F0E2B1612002A280F0B2818E7
:1002C800D8A402D0010E1200000E12007CEC01F03E
:1002D8000009D8A4120040EC01F0AD6E12002B28E2
:1002E8000F0B2918D8A402D0010E1200000E12001C
:1002F80028502A18D8A402D0010E1200000E1200AD
:10030800300ED36E040ED26E000E9B6E1200010EDC
:100318001926000E1A221B221C22120039C04AF08C
:100328003AC04BF0120039C04EF03AC04FF01200FC
:1003380039C050F03AC051F0120039C04CF03AC000
:100348004DF012003A6E3A504BEC01F01200D09E7C
:0603580012002750120004
:020000040020DA
:08000000FFFFFFFFFFFFFFFF00
:020000040030CA
:0E000000FF281F3CFFBF85FF03C003E0034045
:00000001FF
