:0400000033EF00F0EA
:100008003182FACF2BF0FBCF2CF0D9CF2DF0DACFFD
:100018002EF0F2AC1AD09DB89EA808D001D815D001
:100028000500FA6E2750FD6E28500AD09DBA9EAA88
:100038000CD001D80AD00500FA6E2550FD6E265066
:10004800FE6EF850FF6EFA5012002EC0DAFF2DC077
:10005800D9FF2CC0FBFF2BC0FAFF3192110097EF9C
:1000680000F09D9AA40E2F6E010E306EBEEC00F0CB
:100078009D98080E2F6E010E306EB9EC00F0080E38
:10008800B86E900EAB6E240EAC6E190EAF6E000EED
:10009800B06E000E2F6E000E306EC8EC00F0000E31
:1000A8002F6E000E306EC3EC00F0000E2F6E000EA7
:1000B800306ECDEC00F0000E196E000E1E6E000EB4
:1000C8001D6E080E296E000E1C6E000E1B6E000EB3
:1000D8001A6E9D8A1200000E896E000E8A6E000E3E
:1000E8008B6E92689368BF0E946E3C0E0F013A6F48
:1000F8003F0E396F2F0E386F000E616EF18E1200B1
:10010800080E29600ED01D50110FD96EDA6ADF5023
:10011800AD6E1D2A070E1D6402D0000E1D6E292A21
:1001280012009D98120000EE01F01E0EEE6AE8061D
:10013800FDE131903192000EF86E0001B4EF00F04D
:10014800D7EC00F06FEC00F0ADEC00F035EC00F00F
:100158001200300ED36E040ED26E000E9B6E12008B
:10016800A4EC00F0F28EF28CFFD72FC027F030C03D
:1001780028F012002FC025F030C026F012002FC042
:1001880021F030C022F012002FC023F030C024F03C
:1001980012002FC01FF030C020F01200AECF2AF09E
:0A01A8002AC0ADFF1200D09E120025
:020000040020DA
:08000000FFFFFFFFFFFFFFFF00
:020000040030CA
:0E000000FF281F3CFFBF85FF03C003E0034045
:00000001FF
