:040000000CEF00F011
:100008000E82F2BAF2A402D03AEC00F00E9211007D
:100018004EEF00F064EC00F0F28E09C007F00AC061
:1000280008F00750095C056E08500A58066E06BEAF
:10003800F8D7065004E10A0E055CD8A0F2D78972F9
:10004800ECD7000E896E000E8A6E000E8B6EB10E14
:10005800926E93689468FC0E0F013A6F3F0E396FE9
:10006800200E386F000E616EF18E12000350095C8D
:10007800016E04500A58026E02BE06D0E80E015CFA
:10008800030E0258D8B08974F2940DC0D6FF094AFD
:100098000A2A12000C6A0B6A0A6A096A0E900E9202
:1000A800000EF86E00010EEF00F0000ED76E640E21
:1000B800D66E640E0D6EF294F28AD30ED56E1200CF
:1000C80074EC00F025EC00F06DEC00F059EC00F059
:1000D8001200300ED36E140ED26E000E9B6E1200FC
:0400E800D09E120094
:020000040020DA
:08000000FFFFFFFFFFFFFFFF00
:020000040030CA
:0E000000FF281F3CFFBF85FF03C003E0034045
:00000001FF
