:0400000033EF00F0EA
:100008005782FACF4BF0FBCF4CF0D9CF4DF0DACF77
:100018004EF0F2AC1AD09DB89EA808D001D815D0E1
:100028000500FA6E5450FD6E55500AD09DBA9EAA2E
:100038000CD001D80AD00500FA6E5250FD6E53500C
:10004800FE6EF850FF6EFA5012004EC0DAFF4DC037
:10005800D9FF4CC0FBFF4BC0FAFF579211009CEF31
:1000680000F09D9A520E4F6E010E506E11EC01F089
:100078009D98120E4F6E010E506E0CEC01F0080E9A
:10008800B86E900EAB6E240EAC6E190EAF6E000EED
:10009800B06E000E436E000E486E000E476E080EDE
:1000A800566E000E466E000E456E000E446E9D8A1A
:1000B8001200EBEC00F0F28EF28CFDEC00F000097F
:1000C800D8A40BD0E2EC00F00009D8A406D01FECAD
:1000D80001F0516E515016EC01F01BEC01F0EDD718
:1000E800000E896E000E8A6E000E8B6E9268936801
:1000F800BF0E946E3C0E0F013A6F3F0E396F2F0EF4
:10010800386F000E616EF18E1200080E56600ED028
:100118004750310FD96EDA6ADF50AD6E472A070EA5
:10012800476402D0000E476E562A12009D981200AE
:1001380000EE01F0480EEE6AE806FDE1579057928E
:10014800000EF86E00015DEF00F0AECF4AF04AC035
:10015800ADFFF4EC00F00009D8B412004A50D7EC17
:1001680000F012004150110FD96EDA6ADF504F6E5D
:10017800412A0F0E41164F5012004F6E4250110F78
:10018800D96EDA6A4FC0DFFF422A0F0E42161200FC
:100198003F50010FD96EDA6ADF504F6E3F2A0F0EBB
:1001A8003F164F501200496E4250010FD96EDA6A5D
:1001B80049C0DFFF422A0F0E4016120042280F0BDB
:1001C8004118D8A402D0010E1200000E120022EC31
:1001D80001F074EC00F005EC01F035EC00F01200D1
:1001E80040280F0B3F18D8A402D0010E1200000EB1
:1001F80012003F504018D8A402D0010E1200000E81
:100208001200300ED36E040ED26E000E9B6E1200DA
:100218004FC054F050C055F012004FC052F050C0BB
:1002280053F01200506E5050C1EC00F01200B6ECC2
:1002380000F0AD6E1200CCEC00F01200D09E12005F
:020000040020DA
:08000000FFFFFFFFFFFFFFFF00
:020000040030CA
:0E000000FF281F3CFFBF85FF03C003E0034045
:00000001FF
