:0400000014EF00F009
:100008002182FACF01F0FBCF02F0F2BAF2A402D0BB
:10001800F7EC00F002C0FBFF01C0FAFF21921100CB
:100028001BEF01F027EC01F0F28E000E106E000EAF
:10003800116E000E126E000E136E000E146E000E7E
:10004800156E000E166E000E176E45EC01F0186E58
:1000580018503CEC01F01B50086E1C50096E0A6ADF
:100068000B6A1050085C0C6E115009580D6E125036
:100078000A580E6E13500B580F6E0F500E1006E1F3
:10008800E80E0C5C030E0D58D8A008D01BC010F069
:100098001CC011F0126A136A75EC00F01B50086E50
:1000A8001C50096E0A6A0B6A1450085C0C6E1550D5
:1000B80009580D6E16500A580E6E17500B580F6ED1
:1000C8000F500E100D1004E1050E0C5CD8A0BDD722
:1000D8001BC014F01CC015F0166A176AACEC00F0CF
:1000E800B4D719C004F01AC005F0899200F000F0E6
:1000F800899000F000F08994000E076E000E066EDD
:1001080000F000F004C003F0010E03160346895006
:100118000318FD0B0318896E898400F000F0899498
:100128000F0E06180710D8A404D0898000F000F03C
:100138008990D89005320432064A072A07BEE0D7CC
:10014800075005E1100E065CD8B01200D9D712008E
:10015800000E056E000E046E899A899600F000F074
:10016800898600F000F08996000E076E000E066E74
:1001780080A803D0036A032A01D0036A035004123B
:1001880000F000F0898A00F000F0899A07BE06D0D6
:10019800075007E1070E065CD8B003D0D8900436A4
:1001A8000536064A072A07BEE3D7075004E1080EBA
:1001B800065CD8A0DDD704C01DF01200000E896EC1
:1001C800000E8A6E000E8B6ED00E926E9368946845
:1001D800FC0E0F013A6F3F0E396F000E386F000E9C
:1001E800616EF18E1200F29420C0D6FF1E501F10CF
:1001F800D8B4120001D812000500FA6E1E50FD6E28
:100208001F50FE6EF850FF6EFA501200000ED76EA7
:10021800830ED66E830E206EF294F28A800E036EE1
:10022800020E046E37EC01F0D00ED56E12001D6A76
:100238001C6A1B6A1A6A196A21902192000EF86ECC
:10024800000116EF00F043EC01F0E2EC00F030ECB6
:1002580001F00AEC01F01200400ED36E040ED26ECB
:10026800000E9B6E120003C01EF004C01FF01200A7
:10027800036E03C019F012001B4A1C2A1200D09EFC
:0602880012001D501200DF
:020000040020DA
:08000000FFFFFFFFFFFFFFFF00
:020000040030CA
:0E000000FF281F3CFFBF85FF03C003E0034045
:00000001FF
