:0400000014EF00F009
:100008001082FACF01F0FBCF02F0F2BAF2A402D0CC
:1000180064EC00F002C0FBFF01C0FAFF109211006F
:1000280089EF00F092EC00F0F28E0EC007F00FC0DE
:1000380008F00EC009F00FC00AF0898289908B8CF5
:100048008B9E07500E5C056E08500F58066E06BE54
:100058000CD0065004E10A0E055CD8A006D08970C1
:100068008B7C0EC007F00FC008F009500E5C056EBF
:100078000A500F58066E06BEE4D7065004E1140E67
:10008800055CD8A0DED789728B7E0EC009F00FC040
:100098000AF0D7D7000E896E000E8A6E000E8B6E9E
:1000A800FC0E926E93683F0E946E3C0E0F013A6FF1
:1000B8003F0E396F280E386F000E616EF18E1200F8
:1000C8008990F2940DC0D6FF0B500C10D8B41200D2
:1000D80001D812000500FA6E0B50FD6E0C50FE6E32
:1000E800F850FF6EFA501200000ED76EF60ED66E5C
:1000F800F60E0D6EF294F28A4E0E036E010E046E29
:10010800A2EC00F0D70ED56E12000F6A0E6A10909E
:100118001092000EF86E000116EF00F0AAEC00F045
:100128004EEC00F09BEC00F078EC00F01200300E82
:10013800D36E040ED26E000E9B6E120003C00BF03D
:1001480004C00CF012000E4A0F2A1200D09E1200B2
:020000040020DA
:08000000FFFFFFFFFFFFFFFF00
:020000040030CA
:0E000000FF281F3CFFBF85FF03C003E0034045
:00000001FF
