:040000001AEF00F003
:100008005582D9CF4FF0DACF50F0F2AC09D09DA885
:1000180002D09EB805D09DBA9EAA02D064EC00F02A
:1000280050C0DAFF4FC0D9FF5592110073EF00F0AE
:100038009D9A9D98080EB86E900EAB6E240EAC6E0D
:10004800190EAF6E000EB06E000E476E000E4C6EAD
:10005800000E4B6E080E546E000E4A6E000E496E6E
:10006800000E486E9D8A1200B5EC00F0F28EF28CFC
:10007800D0EC00F00009D8A40BD0ACEC00F00009DB
:10008800D8A406D0ECEC00F0536E5350E7EC00F027
:10009800BEEC00F0EDD7000E896E000E8A6E000EE1
:1000A8008B6E92689368BF0E946E3C0E0F013A6F88
:1000B8003F0E396F2F0E386F000E616EF18E1200F1
:1000C800ABA202D0AB98AB88AECF4EF0C7EC00F035
:1000D8000009D8A412004E50A1EC00F0120000EE66
:1000E80001F04C0EEE6AE806FDE155905592000EBF
:1000F800F86E000138EF00F04350010FD96EDA6A4C
:10010800DF50516E432A0F0E431651501200516EA4
:100118004550010FD96EDA6A51C0DFFF452A0F0E2C
:10012800451612004450110FD96EDA6ADF50516E2D
:10013800442A0F0E4416515012004D6E4650110FAE
:10014800D96EDA6A4DC0DFFF462A0F0E4616120036
:1001580045280F0B4318D8A402D0010E1200000E38
:100168001200EFEC00F04FEC00F0E0EC00F01CECBB
:1001780000F01200D8EC00F00009D8A4120080ECBE
:1001880000F0AD6E120046280F0B4418D8A402D018
:10019800010E1200000E120044504618D8A402D0D6
:1001A800010E1200000E120043504518D8A402D0C8
:1001B800010E1200000E1200300ED36E040ED26E25
:1001C800000E9B6E1200526E52508BEC00F0120023
:0A01D80096EC00F01200D09E120019
:020000040020DA
:08000000FFFFFFFFFFFFFFFF00
:020000040030CA
:0E000000FF281F3CFFBF85FF03C003E0034045
:00000001FF
