:0400000014EF00F009
:100008002482FACF01F0FBCF02F0F2BAF2A402D0B8
:10001800EBEC00F002C0FBFF01C0FAFF24921100D4
:100028000FEF01F01CEC01F0F28E000E106E000EC6
:10003800116E000E126E000E136E000E146E000E7E
:10004800156E000E166E000E176E010E38EC01F0DC
:100058001050185C086E11501958096E12501A5831
:100068000A6E13501B580B6E0B500A10091004E14E
:100078000B0E085CD8A00AD018C010F019C011F0F7
:100088001AC012F01BC013F069EC00F01450185C91
:10009800086E15501958096E16501A580A6E1750DE
:1000A8001B580B6E0B500A10091004E1090E085C6E
:1000B800D8A0CBD718C014F019C015F01AC016F084
:1000C8001BC017F0A0EC00F0C0D71EC01CF01FC06A
:1000D8001DF089948990899200F000F0000E056E59
:1000E800000E046E1CC003F0010E0316034689506F
:1000F8000318FD0B0318896E00F000F0898400F0E6
:1001080000F089940F0E04180510D8A404D0898033
:1001180000F000F08990D8901D321C3200F000F0F9
:10012800044A052A05BEDED7055005E1100E045C19
:10013800D8B01200D7D71200000E056E000E046E5C
:10014800899A899600F000F0898600F000F0899677
:10015800000E076E000E066E00F000F0898A00F0AF
:1001680000F080A803D0036A032A01D0036A035071
:100178000412899A07BE06D0075007E1070E065CED
:10018800D8B003D0D89004360536064A072A07BEE9
:10019800E3D7075004E1080E065CD8A0DDD704C0F9
:1001A80020F01200000E896E000E8A6E000E8B6E13
:1001B800D00E926E93689468FC0E0F013A6F3F0E52
:1001C800396F000E386F000E616EF18E1200F294D6
:1001D80023C0D6FF21502210D8B4120001D8120033
:1001E8000500FA6E2150FD6E2250FE6EF850FF6E2B
:1001F800FA501200000ED76EF80ED66EF80E236E67
:10020800F294F28A580E036E020E046E33EC01F07B
:10021800D70ED56E120000EE18F0090EEE6AE80649
:10022800FDE124902492000EF86E000116EF00F014
:100238003CEC01F0D6EC00F025EC01F0FEEC00F00F
:100248001200600ED36E040ED26E000E9B6E12006A
:10025800010E1826000E19221A221B22120003C0B2
:1002680021F004C022F01200036E03C01EF0120039
:04027800D09E120002
:020000040020DA
:08000000FFFFFFFFFFFFFFFF00
:020000040030CA
:0E000000FF281F3CFFBF85FF03C003E0034045
:00000001FF
