:0400000028EF00F0F5
:100008005582FACF44F0FBCF45F0D9CF46F0DACF8E
:1000180047F0F2BAF2A403D0E1EC00F00BD0F2AC56
:1000280009D09DA802D09EB805D09DBA9EAA02D03C
:1000380005EC01F047C0DAFF46C0D9FF45C0FBFF19
:1000480044C0FAFF55921100CEEF00F014EC01F015
:10005800F28EF28C00017551295C4D6E76512A584A
:100068004E6E77512B584F6E78512C58506E505019
:100078004F1006E1F40E4D5C010E4E58D8A00BD07F
:1000880029C075F02AC076F02BC077F02CC078F024
:1000980063EC00F0897085EC01F00001796F40ECA9
:1000A80001F00009D8A408D05BEC01F00009D8A43D
:1000B80003D079517EEC01F049EC01F0CBD7000E6A
:1000C8004A6E000E496E899A899600F000F089867A
:1000D80000F000F08996000E4C6E000E4B6E80A862
:1000E80003D0486A482A01D0486A49504810496EE6
:1000F8004A504A6E00F000F0898A00F000F0899AB0
:100108004CBE06D04C5007E1070E4B5CD8B003D06C
:10011800D89049364A364B4A4C2A4CBEE0D74C5008
:1001280004E1080E4B5CD8A0DAD749C037F01200BA
:100138009D9A9D98080EB86E900EAB6E240EAC6E0C
:10014800190EAF6E000EB06E000E3C6E000E416EC2
:10015800000E406E080E546E000E3F6E000E3E6E8E
:10016800000E3D6E9D8A1200000E896E000E8A6E8A
:10017800000E8B6ED00E926E9368BF0E946E3C0E7E
:100188000F013A6F3F0E396F000E386F000E616E27
:10019800F18E120000EE60F0100EEE6AE806FDE146
:1001A80000EE01F0410EEE6AE806FDE15590559229
:1001B800000EF86E00012AEF00F0F29453C0D6FF4B
:1001C80051505210D8B4120001D812000500FA6E2E
:1001D8005150FD6E5250FE6EF850FF6EFA501200EC
:1001E800000ED76E830ED66E830E536EF294F28A8B
:1001F800E40E486E020E496E79EC01F0D00ED56E11
:100208001200ABA202D0AB98AB88AECF43F052EC51
:1002180001F00009D8A41200435035EC01F0120097
:1002280083EC01F0B8EC00F06BEC01F0F4EC00F0BA
:100238009CEC00F012003850010FD96EDA6ADF50DA
:10024800486E382A0F0E381648501200486E3A5039
:10025800010FD96EDA6A48C0DFFF3A2A0F0E3A1644
:100268001200426E3B50600FD96EDA6A42C0DFFF5F
:100278003B2A0F0E3B1612003A280F0B3818D8A449
:1002880002D0010E1200000E120063EC01F000090A
:10029800D8A412001FEC01F0AD6E12003B280F0B22
:1002A8003918D8A402D0010E1200000E12003950DD
:1002B8003B18D8A402D0010E1200000E12003850CC
:1002C8003A18D8A402D0010E1200000E1200300E07
:1002D800D36E040ED26E000E9B6E1200010E2926FC
:1002E800000E2A222B222C22120048C051F049C0AD
:1002F80052F01200496E49502AEC01F01200D09ECB
:0603080012003750120044
:020000040020DA
:08000000FFFFFFFFFFFFFFFF00
:020000040030CA
:0E000000FF281F3CFFBF85FF03C003E0034045
:00000001FF
