:0400000028EF00F0F5
:100008005982FACF3DF0FBCF3EF0D9CF3FF0DACF9F
:1000180040F0F2BAF2A403D0FCEC01F00BD0F2AC41
:1000280009D09DA802D09EB805D09DBA9EAA02D03C
:1000380043EC02F040C0DAFF3FC0D9FF3EC0FBFFEF
:100048003DC0FAFF59921100E9EF01F098C001F0A4
:1000580099C002F09AC04FF09BC04EF04E50020D6E
:10006800F350330F4B6E9CC04FF09DC04EF04E5076
:100078004E24036E4EC049F04FC04AF0030E4D6E39
:10008800000E4C6E19D04C50020D4B50F324D96E13
:10009800DA6ADECF4EF0DDCF4FF04D50010FD96E4A
:1000A800DA6A4FC0DFFF4D2A4D50010FD96EDA6A68
:1000B8004EC0DFFF4D2A4C2A4C50476E486A4950C3
:1000C800475C4A504858D8A0DED70350030F32EC9B
:1000D80002F0980E416E000E436E000E426E000E46
:1000E800456E200E446E0FEC02F01200A8EC02F0F0
:1000F8000009D8A412D0DDEC02F0506E2650980FFB
:10010800D96EDA6A50C0DFFF262A15C011F016C072
:1001180012F017C013F018C014F01150155C506E8F
:1001280012501658516E13501758526E14501858D2
:10013800536E53505210511004E1040E505CD8A075
:100148001200D5EC01F0D0EC02F015C011F016C089
:1001580012F017C013F018C014F0000E266E12002B
:10016800000E436E000E426E899A899600F000F0E8
:10017800898600F000F08996000E456E000E446EE8
:1001880080A803D0416A412A01D0416A42504110F7
:10019800426E4350436E00F000F0898A00F000F090
:1001A800899A45BE06D0455007E1070E445CD8B091
:1001B80003D0D89042364336444A452A45BEE0D754
:1001C800455004E1080E445CD8A0DAD742C025F0B7
:1001D800120019C042F01AC043F0899200F000F0F2
:1001E800899000F000F08994000E456E000E446E70
:1001F80000F000F042C041F0010E4116414689501E
:100208004118FD0B4118896E898400F000F089942B
:100218000F0E44184510D8A404D0898000F000F0CF
:100228008990D89043324232444A452A45BEE0D7A5
:10023800455005E1100E445CD8B01200D9D7120021
:100248009AC04BF09BC04AF04AC047F04BC048F0F8
:100258009CC04BF09DC04AF04750020DF350330F3D
:10026800D96EDA6A4AC0DEFF4BC0DDFF000E496E68
:100278004950980FD96EDA6A4950010FE16EE26A67
:10028800DFCFE7FF492A050E4964F2D7060E32ECA4
:1002980002F0980E416E000E436E000E426E000E84
:1002A800456E200E446E0FEC02F01200000E4B6EED
:1002B800000E4C6E000E4D6E000E4E6EE2EC02F01B
:1002C800466E4650396E3A6A2850D9EC02F02750EB
:1002D800D5EC02F01850171005E1F40E155C010E6C
:1002E8001658D8B0EDEC00F01850171006E1F40ECF
:1002F800155C010E1658D8A01200B4EC00F08A7EE6
:100308001200010E566E000E426E000E416E4150F4
:10031800020DF350330FD96EDA6A000EDE6E000E4E
:10032800DD6E414A422A42BEF2D7425004E1040E31
:10033800415CD8A0ECD72868276812009D9A9D9840
:10034800080EB86E900EAB6E240EAC6E190EAF6E22
:10035800000EB06E000E2D6E000E326E000E316E65
:10036800080E586E000E306E000E2F6E000E2E6EA8
:100378009D8A1200000E896E000E8A6E000E8B6E2A
:10038800D00E926E7F0E936EBF0E946E3C0E0F01D0
:100398003A6F3F0E396F000E386F000E616EF18EA6
:1003A8001200565000019819D8A4120006D02AEC61
:1003B80000F0120024EC01F012009951030AD8B49D
:1003C800F6D7050AD8A41200F5D700EE60F0580E4B
:1003D800EE6AE806FDE100EE01F03A0EEE6AE80684
:1003E800FDE159905992000EF86E000152EF02F0AB
:1003F800F29457C0D6FF54505510D8B4120001D803
:1004080012000500FA6E5450FD6E5550FE6EF850FD
:10041800FF6EFA50120041C046F006D04650D96E21
:10042800DA6A42C0DFFF462A4406D8A045064428B7
:10043800F5E14528D8B41200F1D7000ED76E830E27
:10044800D66E830E576EF294F28A7E0E416E050EBA
:10045800426EC6EC02F0D00ED56E1200436E000E4E
:10046800446E08D04450010FD96EDA6ADF50CBECE5
:1004780002F0442A4350445CD8B01200F3D7ABA230
:1004880002D0AB98AB88AECF3CF09FEC02F00009ED
:10049800D8A412003C508BEC02F012005FEC02F082
:1004A800F28EF28C85EC01F07AEC00F096EC02F01A
:1004B8005AEC01F0F9D7E0EC02F0BEEC01F0B8EC30
:1004C80002F021EC02F0A2EC01F01200416E2B5078
:1004D800600FD96EDA6A41C0DFFF2B2A0F0E2B1688
:1004E80012002A50700FD96EDA6ADF50416E2A2A3C
:1004F8000F0E2A16415012002950600FD96EDA6A81
:10050800DF50416E292A0F0E2916415012003B6E0A
:100518002C50700FD96EDA6A3BC0DFFF2C2A0F0E01
:100528002C161200B0EC02F00009D8A4120080ECDE
:1005380002F0AD6E12002C280F0B2A18D8A402D096
:10054800010E1200000E12002A502C18D8A402D056
:10055800010E1200000E120029502B18D8A402D048
:10056800010E1200000E1200300ED36E040ED26E71
:10057800000E9B6E1200010E1526000E1622172281
:100588001822120041C054F042C055F01200426EC9
:1005980042506AEC02F0120033C028F035C027F050
:1005A8001200416E41C01AF01200416E41C019F0AC
:1005B800120075EC02F01200D09E120025501200B5
:020000040020DA
:08000000FFFFFFFFFFFFFFFF00
:020000040030CA
:0E000000FF281F3CFFBF85FF03C003E0034045
:00000001FF
