:0400000014EF00F009
:100008001C82FACF01F0FBCF02F0F2BAF2A402D0C0
:10001800C7EC00F002C0FBFF01C0FAFF1C92110000
:10002800EBEF00F0000E056E000E046E899A8996BB
:1000380000F000F0898600F000F08996000E076E47
:10004800000E066E80A803D0036A032A01D0036A53
:1000580004500310046E0550056E00F000F0898A04
:1000680000F000F0899A07BE06D0075007E1070E96
:10007800065CD8B003D0D89004360536064A072A5D
:1000880007BEE0D7075004E1080E065CD8A0DAD70F
:1000980004C018F0120016C004F017C005F08992C9
:1000A80000F000F0899000F000F08994000E076ECF
:1000B800000E066E00F000F004C003F0010E0316F7
:1000C800034689500318FD0B0318896E898400F0D4
:1000D80000F089940F0E06180710D8A404D0898060
:1000E80000F000F08990D89005320432064A072AB9
:1000F80007BEE0D7075005E1100E065CD8B0120025
:10010800D9D71200000E0C6E000E0D6E000E0E6E8A
:10011800000E0F6E24EC01F0116E1150FF0A106EE4
:1001280011501EEC01F010501AEC01F0155014108B
:1001380005E1F40E125C010E1358D8B04FEC00F034
:100148001550141006E1F40E125C010E1358D8A0D5
:10015800120016EC00F08A7E1200000E896E000E66
:100168008A6E000E8B6ED00E926E7F0E936E946820
:10017800FC0E0F013A6F3F0E396F000E386F000EFC
:10018800616EF18E1200F2941BC0D6FF19501A103E
:10019800D8B4120001D812000500FA6E1950FD6E8D
:1001A8001A50FE6EF850FF6EFA501200000ED76E0D
:1001B800830ED66E830E1B6EF294F28A100E036EB7
:1001C800020E046E15EC01F0D00ED56E120000EE92
:1001D80012F0070EEE6AE806FDE11C901C92000E74
:1001E800F86E00010FEF01F022EC01F0B1EC00F025
:1001F80001EC01F0DAEC00F01200300ED36E040EC0
:10020800D26E000E9B6E1200010E1226000E1322F3
:10021800142215221200F8EC00F0F28E86EC00F0A1
:10022800FDD703C019F004C01AF01200036E03C012
:1002380017F01200036E03C016F01200D09E1200D1
:040248001850120038
:020000040020DA
:08000000FFFFFFFFFFFFFFFF00
:020000040030CA
:0E000000FF281F3CFFBF85FF03C003E0034045
:00000001FF
