:0400000014EF00F009
:100008001F82FACF01F0FBCF02F0F2BAF2A402D0BD
:1000180002EC01F002C0FBFF01C0FAFF1F921100C1
:1000280015EF01F022EC01F0F28E000E0A6E000EC0
:100038000B6E000E0C6E000E0D6E000E0E6E000E96
:100048000F6E000E106E000E116E44EC01F0126E71
:1000580012503EEC01F00A50135C066E0B50145817
:10006800076E0C501558086E0D501658096E095039
:100078000810071004E16E0E065CD8A00AD013C061
:100088000AF014C00BF015C00CF016C00DF06CECA3
:1000980000F00E50135C066E0F501458076E105087
:1000A8001558086E11501658096E09500810071097
:1000B80004E15A0E065CD8A0C8D713C00EF014C0CD
:1000C8000FF015C010F016C011F0A3EC00F0BDD76A
:1000D80019C017F01AC018F089948990899200F015
:1000E80000F0000E056E000E046E17C003F0010E3E
:1000F8000316034689500318FD0B0318896E00F098
:1001080000F0898400F000F089940F0E041805109F
:10011800D8A404D0898000F000F08990D8901832D3
:10012800173200F000F0044A052A05BEDED7055054
:1001380005E1100E045CD8B01200D7D71200000EEB
:10014800036E899A899600F000F0898600F000F025
:100158008996000E056E000E046E80A802D0010E6E
:1001680001D0000E0310036E00F000F0898A00F041
:1001780000F0899A05BE06D0055006E1070E045C1A
:10018800D8B002D0D8900336044A052A05BEE5D770
:10019800055004E1080E045CD8A0DFD703C01BF0AB
:1001A8001200000ED76EE70ED66EE70E1E6EF294A2
:1001B800F28A640E036E020E046E39EC01F0D00E62
:1001C800D56E000E136E000E146E000E156E000E26
:1001D800166E1200000E896E000E8A6E000E8B6E6F
:1001E800D00E926E93689468FC0E0F013A6F3F0E22
:1001F800396F000E386F6168F18E1200F2941EC0DC
:10020800D6FF1C501D10D8B4120001D812000500EA
:10021800FA6E1C50FD6E1D50FE6EF850FF6EFA50BF
:10022800120000EE13F0090EEE6AE806FDE11F90D9
:100238001F92000EF86E000116EF00F042EC01F07C
:10024800EEEC00F02BEC01F0D5EC00F01200400EC3
:10025800D36E040ED26E800E9B6E1200010E132612
:10026800000E142215221622120003C01CF004C02E
:100278001DF01200036E03C019F01200D09E120088
:040288001B501200F5
:020000040020DA
:08000000FFFFFFFFFFFFFFFF00
:020000040030CA
:0E000000FF281F3CFFBF85FF03C003E0034045
:00000001FF
