:0400000028EF00F0F5
:100008005982FACF51F0FBCF52F0D9CF53F0DACF63
:1000180054F0F2BAF2A403D089EC00F00BD0F2ACA1
:1000280009D09DA802D09EB805D09DBA9EAA02D03C
:10003800AEEC00F054C0DAFF53C0D9FF52C0FBFF4A
:1000480051C0FAFF59921100BDEF00F0CAEC00F060
:10005800F28EF28C898039C065F03AC066F01CECEB
:1000680001F00009D8A40CD001EC01F00009D8A4D3
:1000780007D03EEC01F00001646F645133EC01F0ED
:100088000AEC01F000016551395C626F66513A581B
:10009800636F63BFE4D7635104E10A0E625DD8A0C1
:1000A800DED78970D8D79D9A9D98080EB86E900EA5
:1000B800AB6E240EAC6E190EAF6E000EB06E000E55
:1000C800496E000E4E6E000E4D6E080E676F000EE4
:1000D8004C6E000E4B6E000E4A6E9D8A1200000E8A
:1000E800896E000E8A6E000E8B6EFE0E926E9368FD
:1000F800BF0E946E3C0E0F013A6F3F0E396F2E0EF5
:10010800386F000E616EF18E1200F29458C0D6FF5F
:1001180056505710D8B4120001D812000500FA6ED4
:100128005650FD6E5750FE6EF850FF6EFA50120092
:10013800000ED76EEC0ED66EEC0E586EF294F28A64
:10014800820E0001606F020E616F39EC01F0D60E6D
:10015800D56E1200ABA202D0AB98AB88AECF50F0F0
:1001680013EC01F00009D8A412005050F6EC00F08E
:10017800120000EE01F04E0EEE6AE806FDE159901D
:100188005992000EF86E00012AEF00F044EC01F0DD
:1001980073EC00F02CEC01F09CEC00F057EC00F054
:1001A80012004550010FD96EDA6ADF50556E452AA4
:1001B8000F0E451655501200556E4750010FD96E57
:1001C800DA6A55C0DFFF472A0F0E4716120046505D
:1001D800110FD96EDA6ADF50556E462A0F0E461691
:1001E800555012004F6E4850110FD96EDA6A4FC041
:1001F800DFFF482A0F0E4816120047280F0B451834
:10020800D8A402D0010E1200000E120024EC01F056
:100218000009D8A41200D5EC00F0AD6E12004828F1
:100228000F0B4618D8A402D0010E1200000E1200BF
:1002380046504818D8A402D0010E1200000E120031
:1002480045504718D8A402D0010E1200000E120023
:10025800300ED36E040ED26E000E9B6E1200606FCD
:1002680000016051E0EC00F0120060C056F061C07F
:1002780057F01200EBEC00F01200394A3A2A12004B
:04028800D09E1200F2
:020000040020DA
:08000000FFFFFFFFFFFFFFFF00
:020000040030CA
:0E000000FF281F3CFFBF85FF03C003E0034045
:00000001FF
