:020000040000FA
:040000004DEF00F0D0
:06000800538259EF07F0DE
:100018005380D8CF05F0E8CF06F0E0CF07F0FACF4D
:1000280008F0FBCF09F0D9CF0AF0DACF0BF09DBC6E
:100038009EAC03D0DDEC09F01CD0A3BAA4AA09D069
:1000480001D817D005000001FA6EFC51FD6EFD5174
:100058000BD0A3B8A4A80DD001D80BD0050000017F
:10006800FA6EFE51FD6EFF51FE6EF850FF6EFA50AB
:1000780012000BC0DAFF0AC0D9FF09C0FBFF08C095
:10008800FAFF07C0E0FF06C0E8FF05C0D8FF53909D
:100098001000EBEF08F0CC0E0101F86F010EF96FBC
:1000A800400EFC6F010EFD6F9D9A9D98F8C1D9FF17
:1000B800F9C1DAFFDE28D8A4E1D3690E0D6E1F0E50
:1000C8000E6E57EC08F0000E0101FB6F000EFA6F80
:1000D80017D0CC0EFA25D96E010EFB21DA6EDF504F
:1000E8001B6E1B500D6E0E6A0F6A106A020E116E9F
:1000F80042EC05F0200EB5EC08F00101FA4BFB2BA1
:1001080048501B6E1C6A1B50FA5D1C50FB59D8A046
:10011800E0D70A0EB5EC08F0CC0E0C6E010E0D6E91
:100128004850FE0F0E6E8CEC07F00CC0F2F10DC0BB
:10013800F3F1CB0E4824D96EDA6A010EDA22DF50C9
:100148001B6E1B501D6E1C6ACA0E4824D96EDA6AD3
:10015800010EDA22DF501E6E1E501C26000E1D22D4
:100168000101F2511C1803E1F3511D18D8A47FD3E3
:10017800D10E0D6E1F0E0E6E57EC08F060D320EEF8
:1001880003F0F851D926F951DA22DF501B6E20EE20
:1001980002F0F851D926F951DA22DF501C6E1C50B2
:1001A8001E6E1D6A1B501D24F46F000E1E20F56F75
:1001B80020EE05F0F851D926F951DA22DF501B6EEE
:1001C80020EE04F0F851D926F951DA22DF501C6EDE
:1001D8001C501E6E1D6A1B501D24F66F000E1E203B
:1001E800F76FC10E0D6E1F0E0E6E57EC08F0E60E7F
:1001F8000D6E1F0E0E6E57EC08F0F4C10DF0F5C130
:100208000EF00F6A106A040E116E42EC05F0F30E40
:100218000D6E1F0E0E6E57EC08F0F6C10DF0F7C10B
:100228000EF00F6A106A040E116E42EC05F0D60E3D
:100238000D6E1F0E0E6E57EC08F00101F651F425F5
:100248001B6EF751F5211C6E1C5004E1430E1B5C1C
:10025800D8A028D0FCC1D9FFFDC1DAFFFF0EDF6EA0
:1002680020EE01F0FC51D926FD51DA22830EDF6E13
:1002780020EE02F0FC51D926FD51DA22020EDF6E83
:1002880020EE04F0FC51D926FD51DA222E0EDF6E45
:1002980020EE03F0FC51D926FD51DA22710EDF6EF3
:1002A800870E70D1FCC1D9FFFDC1DAFFFF0EDF6EEA
:1002B80020EE01F0FC51D926FD51DA22030EDF6E43
:1002C80020EE02F0FC51D926FD51DA22F651F6252E
:1002D800DF6E000EFB6F000EFA6F55D0FAC11BF0EF
:1002E800FBC11CF0D8901B361C36FCC11DF0FDC1AB
:1002F8001EF01B501D261C501E22030E1D24D96EF5
:10030800000E1E20DA6EFA51F4251F6EFB51F521FE
:10031800206ED8901F362036600E1F24E16E000E26
:100328002020E26EE6CF21F0E5CF22F022C021F0B6
:10033800226A2150DF6EFA51F4251B6EFB51F5211C
:100348001C6ED8901B361C36600E1B24D96E000E0E
:100358001C20DA6EFAC11DF0FBC11EF0D8901D36C4
:100368001E36FCC11FF0FDC120F01D501F261E5077
:100378002022040E1F24E16E000E2020E26EDFCF43
:10038800E7FFFA4BFB2BF651FA5DF751FB59D8A062
:10039800A5D7400E0C6E010E0D6EF651020DF350EE
:1003A800030F0E6E8CEC07F00CC0F2F10DC0F3F1E8
:1003B800F6C11BF0F7C11CF0D8901B361C36FCC1E7
:1003C8001DF0FDC11EF01B501D261C501E22040EE0
:1003D8001D24D96E000E1E20DA6E0101F351DF6E66
:1003E800F6C11BF0F7C11CF0D8901B361C36FCC1B7
:1003F8001DF0FDC11EF01B501D261C501E22030EB1
:100408001D24D96E000E1E20DA6EF2C1DFFFF651F0
:10041800FE0DF350870FB6D020EE03F0F851D92621
:10042800F951DA22DF501B6E20EE02F0F851D9267E
:10043800F951DA22DF501C6E1C501E6E1D6A1B50CB
:100448001D24F46F000E1E20F56F20EE05F0F85104
:10045800D926F951DA22DF501B6E20EE04F0F8514C
:10046800D926F951DA22DF501C6E1C501E6E1D6A07
:100478001B501D24F06F000E1E20F16FC90E0D6E6B
:100488001F0E0E6E57EC08F0E60E0D6E1F0E0E6E68
:1004980057EC08F0F4C10DF0F5C10EF00F6A106AC0
:1004A800040E116E42EC05F0DF0E0D6E1F0E0E6E7F
:1004B80057EC08F0F0C10DF0F1C10EF00F6A106AA8
:1004C800040E116E42EC05F0D60E0D6E1F0E0E6E68
:1004D80057EC08F00101F55104E1420EF45DD8A093
:1004E80026D0FCC1D9FFFDC1DAFFFF0EDF6E20EE7A
:1004F80001F0FC51D926FD51DA22860EDF6E20EE7E
:1005080002F0FC51D926FD51DA22020EDF6E20EEF0
:1005180004F0FC51D926FD51DA227E0EDF6E20EE62
:1005280003F0FC51D926FD51DA22720EB8D6D890C4
:10053800F435D96EF535DA6E600ED926000EDA225A
:10054800F0C1DEFFF1C1DDFF0CEC08F0000E010187
:10055800FB6F000EFA6FCC0EFA25D96E010EFB2147
:10056800DA6E400EFA25E16E010EFB21E26EDFCF56
:10057800E7FFFA4BFB2BFB5104E1080EFA5DD8A00C
:10058800EAD7840E526E6DD120EE03F0F851D926C9
:10059800F951DA22DF501B6E20EE02F0F851D9260D
:1005A800F951DA22DF501C6E1C501E6E1D6A1B505A
:1005B8001D24F46F000E1E20F56F20EE06F0F85192
:1005C800D926F951DA22DF501B6ED8901B321B5006
:1005D800F66FF76BB90E0D6E1F0E0E6E57EC08F026
:1005E800E60E0D6E1F0E0E6E57EC08F0F4C10DF0FE
:1005F800F5C10EF00F6A106A040E116E42EC05F098
:10060800F30E0D6E1F0E0E6E57EC08F0F6C10DF0CE
:10061800F7C10EF00F6A106A040E116E42EC05F075
:10062800D60E0D6E1F0E0E6E57EC08F00101F65136
:10063800F4251B6EF751F5211C6E1C5004E1430E86
:100648001B5CD8A026D0FCC1D9FFFDC1DAFFFF0E84
:10065800DF6E20EE01F0FC51D926FD51DA22900E12
:10066800DF6E20EE02F0FC51D926FD51DA22020E8F
:10067800DF6E20EE04F0FC51D926FD51DA221E0E61
:10068800DF6E20EE03F0FC51D926FD51DA227C0EF4
:1006980006D6000EFB6F000EFA6F4AD0FAC11BF0A7
:1006A800FBC11CF0D8901B361C36F8C11DF0F9C1EF
:1006B8001EF01B501D261C501E22070E1D24D96E2D
:1006C800000E1E20DA6EDF501F6E1F50216E206A4A
:1006D800FAC122F0FBC123F0D89022362336F8C1A4
:1006E80024F0F9C125F02250242623502522080E93
:1006F8002424D96E000E2520DA6EDF50266E26508F
:100708002026000E2122FA51F425276EFB51F521EF
:10071800286ED89027362836600E2724D96E000E0A
:100728002820DA6E20C0DEFF21C0DDFFFA4BFB2B4C
:10073800F651FA5DF751FB59D8A0B0D70CEC08F088
:10074800000E0101FB6F000EFA6FCC0EFA25D96E70
:10075800010EFB21DA6E400EFA25E16E010EFB2137
:10076800E26EDFCFE7FFFA4BFB2BFB5104E1060EED
:10077800FA5DD8A0EAD7400E0C6E010E0D6E060E7B
:100788000E6E8CEC07F00CC0F2F10DC0F3F1010114
:10079800F351476FF2C146F1F4D6ED0E0D6E1F0E00
:1007A8000E6E57EC08F00101CD510D6E0E6A0F6AFE
:1007B800106A020E116E42EC05F0A60E0D6E1F0EA9
:1007C8000E6E57EC08F0FCC1D9FFFDC1DAFFFF0E31
:1007D800DF6E010120EE01F0FC51D926FD51DA222D
:1007E80010EE01F0F851E126F951E222E7508009B4
:1007F800DF6E20EE02F0FC51D926FD51DA22010EFF
:10080800DF6E400E0C6E010E0D6E030E0E6E8CEC3C
:1008180007F00CC0F2F10DC0F3F1010120EE04F075
:10082800FC51D926FD51DA22F351DF6E20EE03F098
:10083800FC51D926FD51DA22F2C1DFFF31D5010181
:1008480020EE01F0F851D926F951DA22DF50030AD7
:10085800D8B495D4050AD8B4DFD5160AD8B494D636
:100868009CD78B8A000E4B6E9D88010E1200D80E05
:100878000D6E1F0E0E6E57EC08F016D07E0E0D6E24
:100888001F0E0E6E57EC08F00101CC510D6E0E6A6A
:100898000F6A106A020E116E42EC05F0D60E0D6E4C
:1008A8001F0E0E6E57EC08F0000E1200B7EC09F0A0
:1008B8000009D8B43DD090EC09F00CC0F4F00DC09C
:1008C800F5F0DBEC09F0020E0001F55DD8B008D0B8
:1008D800F4510008EC6FF551D8A0E82A020805D0B9
:1008E800000EF425EC6FFE0EF521ED6FECC0F0F074
:1008F800EDC0F1F0F26BF36BF0C00CF0F1C00DF04D
:10090800F2C00EF0F3C00FF0F0C010F0F1C011F01B
:10091800F2C012F0F3C013F0BBEC07F00C5037260E
:100928000D5038220E5039220F503A223D4A3E2AA5
:10093800405004E17D0E3F5CD8A01200000E406ECE
:10094800000E3F6E37C00CF038C00DF039C00EF005
:100958003AC00FF03DC010F03EC011F0126A136AA1
:1009680018EC07F00CC019F00DC01AF00EC01BF0FF
:100978000FC01CF08EEC06F019C0DAF01AC0DBF0DC
:10098800DAC033F0DBC034F0356A366A0001DA5178
:10099800DC5DDB51DD59D8B010D0000EE16F000EE0
:1009A800E06F000EE36F010EE26FB00E0D6E1F0ECA
:1009B8000E6E57EC08F00CEC08F0000E376E000EC7
:1009C800386E000E396E000E3A6E000E3E6E000E46
:1009D8003D6E0001DE51DF11D8B44BD03B4A3C2AB2
:1009E800DE513B5CDF513C58D8A01200D8C00CF057
:1009F800D9C00DF0000E0F6E3C0E0E6E79EC08F0AB
:100A0800D8900C360D36600E0C24D96E000E0D20D1
:100A1800DA6E33C00CF034C00DF035C00EF036C0BD
:100A28000FF03BC010F03CC011F0126A136A18ECCA
:100A380007F00CC0DEFF0DC0DDFF5F0E0001D81906
:100A480004E1EA0ED919D8B407D0010ED825EE6F03
:100A5800000ED921EF6F04D0000EEF6F000EEE6F7D
:100A6800EEC0D8F0EFC0D9F0000E3C6E000E3B6E21
:100A78001200000E3C6E000E3B6E120011C01AF000
:100A88001A50D8B4120040D0300EB5EC08F09CD003
:100A9800310EB5EC08F098D0320EB5EC08F094D0D1
:100AA800330EB5EC08F090D0340EB5EC08F08CD0CD
:100AB800350EB5EC08F088D0360EB5EC08F084D0C9
:100AC800370EB5EC08F080D0380EB5EC08F07CD0C5
:100AD800390EB5EC08F078D0610EB5EC08F074D09A
:100AE800620EB5EC08F070D0630EB5EC08F06CD06F
:100AF800640EB5EC08F068D0650EB5EC08F064D06B
:100B0800660EB5EC08F060D01A50040DF350FC0FD7
:100B18000DC012F00EC013F00FC014F010C015F085
:100B2800E82A05D0D8901532143213321232E82E42
:100B3800F9D70F0E1214166E000E1314176E000E4E
:100B48001414186E000E1514196E1950000AD8B432
:100B580037D03AD01750000AD8A436D01650000A19
:100B6800D8B492D7010AD8B493D7030AD8B494D783
:100B7800010AD8B495D7070AD8B496D7010AD8B4C9
:100B880097D7030AD8B498D7010AD8B499D70F0AC7
:100B9800D8B49AD7010AD8B49BD7030AD8B49CD73B
:100BA800010AD8B49DD7070AD8B49ED7010AD8B489
:100BB8009FD7030AD8B4A0D7010AD8B4A1D704D0C4
:100BC8001850000AD8B4C6D71A065AD769EC09F0E3
:100BD800000E84EC09F0AC0E0C6E130E0D6EBDEC1D
:100BE80009F0000E0001F76FF751020D600EF324B3
:100BF800D96E000EF420DA6E000EDE6E000EDD6E89
:100C0800F72B3B0EF765F0D7000E406E000E3F6ED7
:100C1800000ED96F000ED86F000EDB6F000EDA6F72
:100C2800010EDD6F2C0EDC6F000EDF6F010EDE6F24
:100C3800000EE16F010EE06F000EE36F000EE26F31
:100C480089928B9AF28EF28CF28CF66951D04050D0
:100C580004E17D0E3F5CD8A04BD0F90E0D6E1F0E3F
:100C68000E6E57EC08F09D8A000E406E000E3F6E27
:100C7800000E25D0D9EC09F00009D8B406D0000E32
:100C8800406E000E3F6E010E1AD05AEC04F030D0C0
:100C9800405004E1220E3F5CD8A02AD04FEC00F06F
:100CA8000009D8B406D0000E406E000E3F6E020E4A
:100CB80006D09D8A000E406E000E3F6E030E0001A6
:100CC80016D0B1EC09F00009D8B412D08B9AF1D73C
:100CD800405004E1020E3F5CD8A00AD0000E4A6ED4
:100CE800000E486E000E406E000E3F6E000EF66F4E
:100CF8000001F651000AD8B4BDD7010AD8B4C8D744
:100D0800030AD8B4DED7010AD8B4E2D7FC0AD8B4AB
:100D18009ED7EED7000E2B6E000E2C6E000E2D6E99
:100D2800000E2E6E000E2F6E000E306E000E316E0D
:100D3800000E326E000E2A6E000E296ED8902F36E5
:100D480030363136323619C01DF01AC01EF01BC0BD
:100D58001FF01CC020F01F0E05D0D89020321F3283
:100D68001E321D32E82EF9D72BC021F02CC022F0FC
:100D78002DC023F02EC024F0020ED8902136223642
:100D880023362436E82EF9D71D5021242B6E1E5009
:100D980022202C6E1F5023202D6E205024202E6ED2
:100DA800020ED89019361A361B361C36E82EF9D79B
:100DB800D8902F341D6E30341E6E31341F6E32348D
:100DC800206E010E1D24256E000E1E20266E000EBC
:100DD8001F20276E000E2020286E25502B5C2650E1
:100DE8002C5827502D5828502E58D8A00ED02550B2
:100DF8002B5E26502C5A27502D5A28502E5A010E59
:100E08002F26000E302231223222294A2A2A2ABECF
:100E180095D72A5004E1100E295CD8A08FD72FC08F
:100E280019F030C01AF01200000E146E000E156E84
:100E3800000E166E000E176E1050111012101310BF
:100E4800D8B42AD0010E186E06D0D89010361136B4
:100E580012361336182A13AEF8D7D890143615362A
:100E68001636173610500C5C11500D5812500E588B
:100E780013500F58D8A009D010500C5E11500D5ABD
:100E880012500E5A13500F5A1480D890133212323F
:100E980011321032182EE1D714C00CF015C00DF025
:100EA80016C00EF017C00FF01200FACF01F0FBCFFA
:100EB80002F0D9CF03F0DACF04F09DBA9EAA09D088
:100EC80001D81CD005000001FA6EF851FD6EF951E9
:100ED8000BD09DB89EA80DD001D810D005000001F8
:100EE800FA6EFA51FD6EFB51FE6EF850FF6EFA5025
:100EF8001200F2BAF2A402D0A2EC09F004C0DAFFA0
:100F080003C0D9FF02C0FBFF01C0FAFF53921100D2
:100F1800416842680CC012F00DC013F01FD012C017
:100F2800D9FF13C0DAFFDF5041180F6E0F50146E4F
:100F3800156A124A132A4F0E1424F66E1E0E152037
:100F4800F76E0800F5504218416E4F0E1424F66EE5
:100F58001D0E1520F76E0800F5CF42F00E060E287C
:100F6800D8A4DDD741C00CF042C00DF01200000E2D
:100F7800146E000E156E000E166E000E176E0CA085
:100F880008D0105014261150152212501622135052
:100F98001722D8901036113612361336D8900F32E1
:100FA8000E320D320C320C500D100E100F10D8A44A
:100FB800E6D714C00CF015C00DF016C00EF017C01F
:100FC8000FF01200A39A8A0E0C6E120E0D6EC7EC6B
:100FD80009F0A398360E0C6E120E0D6EC2EC09F0D5
:100FE800080E706E900E716E240E726E330E756E52
:100FF800000E766E000E476E000E466E400E516E65
:10100800000E456E000E446E000E436EA38A120059
:101018000001E051E111D8B419D0E251E311D8B47C
:101028000DD04F0E0D6E1F0E0E6E57EC08F0000E11
:101038000001E16F000EE06F898212009A0E0D6EBA
:101048001F0E0E6E57EC08F0899212008D0E0D6E71
:101058001F0E0E6E57EC08F0898212009D9AA00EA2
:101068000C6E110E0D6ED1EC09F09D98600E0C6E91
:10107800120E0D6ECCEC09F0080EB86E900EAB6E29
:10108800240EAC6E330EAF6E000EB06E000E4C6EBA
:10109800000E4B6E8C0E526E000E4A6E000E496E9C
:1010A800000E486E1200000E116E0FD011500D2464
:1010B8000F6E000E0E20106E0FC0F6FF10C0F7FF67
:1010C8000800F550B5EC08F0112A11500D240F6EE8
:1010D800000E0E20106E0FC0F6FF10C0F7FF0800BC
:1010E800F5500009D8B41200E1D70E500F10D8B44B
:1010F80018D0010E106E04D0D8900E360F36102A74
:101108000FAEFAD70E500C5C0F500D58D8A004D073
:101118000E500C5E0F500D5AD8900F320E32102E12
:10112800F1D70CC00CF00DC00DF01200D59CFE0ECE
:10113800D76E0B0ED66ED650D7CF0EF00F6A0EC0F4
:101148000FF00E6A0E104D6E0F504E6EF294F28A2A
:10115800BE0E0C6E130E0D6EBDEC09F0920ED56E20
:1011680012000C6E5150D8B41200A3B803D00CC0B2
:1011780073FF10D0A398000E4724D96EDA6A010EC7
:10118800DA220CC0DFFF472A3F0E476402D0000E68
:10119800476E5106A3881200ABA202D0AB98AB8869
:1011A800230E4A6409D0CC0E4A24D96EDA6A010E9D
:1011B800DA22AECFDFFF1200CC0E4A24D96EDA6AEB
:1011C800010EDA22AECFDFFF4A2A482A120001EECA
:1011D80000F0F00EEE6AE806FDE100EE60F08C0E1D
:1011E800EE6AE806FDE100EE33F01A0EEE6AE80654
:1011F800FDE153905392000EF86E0001EAEF05F0FE
:10120800000E896E000E8A6E000E8B6EFD0E926EB9
:10121800BF0E936E9F0E946E1C0E0F013A6F3F0E19
:10122800396F2D0E386F000E616EF18E1200400E70
:10123800516010D0000E4624D96EDA6A010EDA2207
:10124800DF50736E462A3F0E466402D0000E466E8B
:10125800512A1200A39812008C0E526010D0400E32
:101268004B24D96EDA6A010EDA22DF50AD6E4B2AB2
:101278008B0E4B6402D0000E4B6E522A12009D98C2
:10128800120071A202D071987188E40E4524D96EBB
:10129800DA6A000EDA2274CFDFFF452A070E4564AA
:1012A80002D0000E456E432A12004F505010D8B499
:1012B800120001D812000500FA6E4F50FD6E505012
:1012C800FE6EF850FF6EFA5012009AEC09F004EC2A
:1012D80009F0AAEC09F078EC09F09AEC08F032EC85
:1012E80008F0E6EC07F01200010EC26E000EC16EA7
:1012F8008C0EC06E000EC36E000EC46E9D8C120064
:101308000D6E0DC00CF00C460C46C2500C18830B29
:101318000C18C26EC2801200C4500F6E0E6AC35001
:101328000E240C6E000E0F200D6E1200D08E9F8AB8
:101338009F88F1849F9CA59AA5981200F2944E501C
:10134800D76E4DC0D6FF59EC09F01200400ED36E8F
:10135800040ED26E000E9B6E1200ACA202D0010EDB
:101368001200000E1200C2B202D0010E1200000ECE
:1013780012000CC04FF00DC050F012000CC0FEF06F
:101388000DC0FFF012000CC0FCF00DC0FDF0120003
:101398000CC0FAF00DC0FBF012000CC0F8F00DC044
:1013A800F9F012003F4A402A120048501200C28247
:0813B80012009E9C12001200BD
:101D4E000000C0C101C30302C2C60607C705C5C451
:101D5E0004CC0C0DCD0FCFCE0E0ACACB0BC9090881
:101D6E00C8D81819D91BDBDA1A1EDEDF1FDD1D1CC1
:101D7E00DC14D4D515D71716D6D21213D311D1D051
:101D8E0010F03031F133F3F23236F6F737F53534F1
:101D9E00F43CFCFD3DFF3F3EFEFA3A3BFB39F9F8C1
:101DAE003828E8E929EB2B2AEAEE2E2FEF2DEDEC61
:101DBE002CE42425E527E7E62622E2E323E1212091
:101DCE00E0A06061A163A3A26266A6A767A5656491
:101DDE00A46CACAD6DAF6F6EAEAA6A6BAB69A9A801
:101DEE006878B8B979BB7B7ABABE7E7FBF7DBDBC41
:101DFE007CB47475B577B7B67672B2B373B17170D1
:101E0E00B050909151935352929656579755959430
:101E1E00549C5C5D9D5F9F9E5E5A9A9B5B99595840
:101E2E0098884849894B8B8A4A4E8E8F4F8D4D4CE0
:101E3E008C44848545874746868242438341818010
:101E4E004000C1814001C0804101C0804100C1817C
:101E5E004001C0804100C1814000C1814001C0806D
:101E6E004101C0804100C1814000C1814001C0805C
:101E7E004100C1814001C0804101C0804100C1814B
:101E8E004001C0804100C1814000C1814001C0803D
:101E9E004100C1814001C0804101C0804100C1812B
:101EAE004000C1814001C0804101C0804100C1811C
:101EBE004001C0804100C1814000C1814001C0800D
:101ECE004101C0804100C1814000C1814001C080FC
:101EDE004100C1814001C0804101C0804100C181EB
:101EEE004000C1814001C0804101C0804100C181DC
:101EFE004001C0804100C1814000C1814001C080CD
:101F0E004100C1814001C0804101C0804100C181BA
:101F1E004001C0804100C1814000C1814001C080AC
:101F2E004101C0804100C1814000C1814001C0809B
:101F3E004100C1814001C0804101C0804100C1818A
:101F4E00406A756D70696E672C72656C617920637D
:101F5E00616E2774206F70656E0A006E657720645F
:101F6E006174612C20636865636B206372630A0081
:101F7E006E657720646174612C20666F723A007210
:101F8E00656C617920636C6F73650A0072656C61B4
:101F9E0079206F70656E0A0020696C6C6567616CE4
:101FAE000A006A756D70696E670A00636F64653A40
:101FBE00313000636F64653A303300636F64653AA5
:101FCE003036006372633A4F0A006372633A580AFE
:101FDE000020646174613A0020616464723A0063A7
:101FEE006F64653A00206C656E3A0072756E0A0079
:011FFE0000E2
:020000040020DA
:08000000FFFFFFFFFFFFFFFF00
:020000040030CA
:0E000000FF281F3CFFBF85FF03C003E0034045
:00000001FF
