:0400000014EF00F009
:100008002182FACF01F0FBCF02F0F2BAF2A402D0BB
:10001800FEEC00F002C0FBFF01C0FAFF21921100C4
:1000280011EF01F01EEC01F0F28E000E0C6E000EC6
:100038000D6E000E0E6E000E0F6E000E106E000E8E
:10004800116E000E126E000E136E40EC01F0146E6D
:1000580014503AEC01F00C50155C086E0D5016580F
:10006800096E0E5017580A6E0F5018580B6E0B5029
:100078000A10091004E1640E085CD8A00AD015C063
:100088000CF016C00DF017C00EF018C00FF06CEC95
:1000980000F01050155C086E11501658096E125079
:1000A80017580A6E135018580B6E0B500A10091087
:1000B80004E1640E085CD8A0C8D715C010F016C0BB
:1000C80011F017C012F018C013F09FEC00F0BDD764
:1000D8001BC019F01CC01AF089948990899200F00D
:1000E800000E056E000E046E19A003D0036A032AE1
:1000F80001D0036A034689500318FD0B0318896E63
:1001080000F0898400F089940F0E04180510D8A413
:1001180003D0898000F08990D8901A321932044AA5
:10012800052A05BEE1D7055005E1100E045CD8B0DC
:100138001200DAD71200000E056E000E046E899ABE
:10014800899600F0898600F08996000E076E000EE9
:10015800066E00F0898A00F080A803D0036A032A9B
:1001680001D0036A03500412899A07BE06D00750CB
:1001780007E1070E065CD8B003D0D89004360536E0
:10018800064A072A07BEE5D7075004E1080E065CB1
:10019800D8A0DFD704C01DF01200000ED76EE70EFE
:1001A800D66EE70E206EF294F28A5C0E036E020E93
:1001B800046E35EC01F0D00ED56E000E156E000EF3
:1001C800166E000E176E000E186E1200000E896E65
:1001D800000E8A6E000E8B6ED00E926E9368946835
:1001E800FC0E0F013A6F3F0E396F000E386F6168D1
:1001F800F18E1200F29420C0D6FF1E501F10D8B402
:10020800120001D812000500FA6E1E50FD6E1F5034
:10021800FE6EF850FF6EFA50120000EE15F0090E4F
:10022800EE6AE806FDE121902192000EF86E0001C9
:1002380016EF00F03EEC01F0EAEC00F027EC01F0DC
:10024800D1EC00F01200400ED36E040ED26E800E78
:100258009B6E1200010E1526000E16221722182278
:10026800120003C01EF004C01FF01200036E03C08A
:0C0278001CF01200D09E12001D5012005D
:020000040020DA
:08000000FFFFFFFFFFFFFFFF00
:020000040030CA
:0E000000FF281F3CFFBF85FF03C003E0034045
:00000001FF
