:0400000054EF00F0C9
:100008003182FACF01F0FBCF02F0E9CF03F0EACF5B
:1000180004F0E1CF05F0E2CF06F0D9CF07F0DACF50
:1000280008F0F3CF09F0F4CF0AF0F6CF0BF0F7CFD2
:100038000CF0F8CF0DF0F5CF0EF031C00FF032C054
:1000480010F033C011F034C012F0F2BAF2A402D0AA
:100058003AEC01F012C034F011C033F010C032F0A5
:100068000FC031F00EC0F5FF0DC0F8FF0CC0F7FF50
:100078000BC0F6FF0AC0F4FF09C0F3FF08C0DAFF9F
:1000880007C0D9FF06C0E2FF05C0E1FF04C0EAFFD0
:1000980003C0E9FF02C0FBFF01C0FAFF3192110063
:1000A8006EEF01F0000E156E000E146E899A899697
:1000B80000F000F0898600F000F08996000E176EB7
:1000C800000E166E17BE03D0175024E11FD080A86B
:1000D80003D0136A132A01D0136A1350141200F0C4
:1000E80000F0898A00F000F0899A17BE06D01750F0
:1000F80007E1070E165CD8B003D0D8901436153631
:10010800164A172A17BEE3D7175004E1080E165CE3
:10011800D8A0DDD714C02CF0120028C014F029C0D4
:1001280015F0899200F000F0899000F000F08994B1
:10013800000E176E000E166E17BE06D0175023E17C
:10014800100E165CD8B0120000F000F014C013F0C6
:10015800010E1316134689501318FD0B1318896ED8
:10016800898400F000F089940F0E16181710D8A48F
:1001780004D0898000F000F08990D89015321432AC
:10018800164A172AD9D7120024C018F025C019F02A
:1001980026C01AF027C01BF0181E191E1A1E1B1E97
:1001A800182A000E19221A221B222A5018241C6E03
:1001B8002B5019201D6E000E1A201E6E000E1B20DB
:1001C8001F6E1F501E1006E1E80E1C5C030E1D5822
:1001D800D8A012002AC024F02BC025F0266A276A6E
:1001E80091EC00F0120020C018F021C019F022C0D4
:1001F8001AF023C01BF0181E191E1A1E1B1E182ADF
:10020800000E19221A221B222A5018241C6E2B5069
:1002180019201D6E000E1A201E6E000E1B201F6E68
:100228001F501E101D1004E1050E1C5CD8A0120002
:100238002AC020F02BC021F0226A236A56EC00F075
:100248001200000E896E000E8A6E000E8B6ED00EA4
:10025800926E93689468FC0E0F013A6F3F0E396FE7
:10026800000E386F000E616EF18E1200F29430C0ED
:10027800D6FF2E502F10D8B4120001D81200050056
:10028800FA6E2E50FD6E2F50FE6EF850FF6EFA502B
:100298001200000ED76E830ED66E830E306EF29467
:1002A800F28A340E136E030E146E95EC01F0D00E24
:1002B800D56E120085EC01F0F28EC8EC00F0F7EC78
:1002C80000F09FEC01F02D6E000E136E2D507BECAC
:1002D80001F0F3D700EE20F00E0EEE6AE806FDE11D
:1002E80031903192000EF86E00015EEF01F0146E4D
:1002F8001350D8B403D014C028F0120014C029F049
:1003080012009DEC01F025EC01F08EEC01F04DECB3
:1003180001F01200400ED36E040ED26E000E9B6EDA
:10032800120013C02EF014C02FF012002A4A2B2AF4
:0A0338001200D09E12002C5012009B
:020000040020DA
:08000000FFFFFFFFFFFFFFFF00
:020000040030CA
:0E000000FF281F3CFFBF85FF03C003E0034045
:00000001FF
