:040000000CEF00F011
:100008000882F2BAF2A402D068EC00F0089211005B
:100018005AEF00F051EC00F0F28E46EC00F005C00B
:1000280003F006C004F089900350055C016E04508B
:100038000658026E02BE0BD0100E015C270E025845
:10004800D8A005D0897005C003F006C004F080A4CC
:1000580002D0898201D08992E7D7000E896E000EFE
:100068008A6E000E8B6EFC0E926E93689468FC0E7E
:100078000F013A6F3F0E396F280E386F000E616E10
:10008800F18E1200000ED76E9C0ED66E9C0E076E77
:10009800F294F28AD30ED56E12006EEC00F031ECB9
:1000A80000F061EC00F046EC00F01200066A056A08
:1000B8000890089200010EEF00F0400ED36E040E77
:1000C800D26E400E9B6E1200F29407C0D6FF054A0E
:0800D800062A1200D09E12005E
:020000040020DA
:08000000FFFFFFFFFFFFFFFF00
:020000040030CA
:0E000000FF281F3CFFBF85FF0FC00FE00F4021
:00000001FF
